:100000000C942A000C943C000C943C000C943C0092
:100010000C94A0080C9461080C943C000C943C00D7
:100020000C943C000C943C000C9420070C94E106CA
:100030000C943C000C943C000C943C000C943C0050
:100040000C943C000C943C000C943C000C943C0040
:100050000C943C0011241FBECFE5D8E0DEBFCDBF1D
:1000600010E0A0E6B0E001C01D92A936B107E1F7AB
:100070000E94F2080C9420090C940000DF93CF93A7
:10008000CDB7DEB72A970FB6F894DEBF0FBECDBF4F
:1000900089836A834B838A81883018F02FEF2A87FF
:1000A000D1C18B81813009F07BC08981282F30E05C
:1000B00039872887888599858230910569F1288557
:1000C00039852330310534F488859985813091054F
:1000D00069F063C0288539852330310591F1888521
:1000E00099858430910509F442C057C0AAE3B0E075
:1000F000EAE3F0E08081482F8A81282F30E081E018
:1001000090E0022E02C0880F991F0A94E2F7842B18
:100110008C9391E09A8796C1A7E3B0E0E7E3F0E023
:100120008081482F8A81282F30E081E090E002C052
:10013000880F991F2A95E2F7842B8C9321E02A8758
:1001400081C1A4E3B0E0E4E3F0E08081482F8A813C
:10015000282F30E081E090E0022E02C0880F991F26
:100160000A94E2F7842B8C9331E03A876BC1A1E3C8
:10017000B0E0E1E3F0E08081482F8A81282F30E071
:1001800081E090E0022E02C0880F991F0A94E2F7E6
:10019000842B8C9381E08A8755C19EEF9A8752C148
:1001A0008B81882309F07FC08981282F30E03F832D
:1001B0002E838E819F818230910571F12E813F8146
:1001C0002330310534F48E819F818130910569F0AF
:1001D00067C02E813F8123303105A1F18E819F813F
:1001E0008430910509F445C05BC0AAE3B0E0EAE3BE
:1001F000F0E08081482F8A81282F30E081E090E074
:10020000022E02C0880F991F0A94E2F7809584237A
:100210008C9391E09A8716C1A7E3B0E0E7E3F0E0A2
:100220008081482F8A81282F30E081E090E002C051
:10023000880F991F2A95E2F7809584238C9321E0FB
:100240002A8700C1A4E3B0E0E4E3F0E08081482F16
:100250008A81282F30E081E090E0022E02C0880FD2
:10026000991F0A94E2F7809584238C9331E03A87B2
:10027000E9C0A1E3B0E0E1E3F0E08081482F8A81AA
:10028000282F30E081E090E0022E02C0880F991FF5
:100290000A94E2F7809584238C9381E08A87D2C008
:1002A0009EEF9A87CFC08B81823009F0C9C08981C7
:1002B000282F30E03D832C838C819D8182309105F5
:1002C00009F441C02C813D812330310534F48C8107
:1002D0009D818130910571F0B0C02C813D8123302A
:1002E000310509F458C08C819D818430910509F451
:1002F0007BC0A3C0AAE3B0E0EAE3F0E08081482F2E
:100300008A81282F30E081E090E002C0880F991F99
:100310002A95E2F7809584238C93ABE3B0E0EBE37E
:10032000F0E08081482F8A81282F30E081E090E042
:10033000022E02C0880F991F0A94E2F7842B8C9337
:1003400091E09A877FC0A7E3B0E0E7E3F0E0808127
:10035000482F8A81282F30E081E090E002C0880F8A
:10036000991F2A95E2F7809584238C93A8E3B0E047
:10037000E8E3F0E08081482F8A81282F30E081E097
:1003800090E002C0880F991F2A95E2F7842B8C9386
:1003900021E02A8757C0A4E3B0E0E4E3F0E08081E5
:1003A000482F8A81282F30E081E090E002C0880F3A
:1003B000991F2A95E2F7809584238C93A5E3B0E0FA
:1003C000E5E3F0E08081482F8A81282F30E081E04A
:1003D00090E0022E02C0880F991F0A94E2F7842B46
:1003E0008C9331E03A872EC0A1E3B0E0E1E3F0E086
:1003F0008081482F8A81282F30E081E090E002C080
:10040000880F991F2A95E2F7809584238C93A2E3A5
:10041000B0E0E2E3F0E08081482F8A81282F30E0CD
:1004200081E090E0022E02C0880F991F0A94E2F743
:10043000842B8C9381E08A8705C09EEF9A8702C047
:100440002DEF2A878A852A960FB6F894DEBF0FBE55
:10045000CDBFCF91DF910895DF93CF9300D000D02F
:100460000F92CDB7DEB789836A838981282F30E068
:100470003D832C838C819D818230910569F12C8193
:100480003D812330310534F48C819D81813091058B
:1004900069F064C02C813D812330310599F18C8154
:1004A0009D818430910509F443C058C08A81813010
:1004B00039F4EAE3F0E08FEF808391E09B8350C052
:1004C0008A81882331F4EAE3F0E0108221E02B8373
:1004D00047C03FEF3B8344C08A81813039F4E7E372
:1004E000F0E08FEF808381E08B833AC08A8188239C
:1004F00031F4E7E3F0E0108291E09B8331C02FEF0D
:100500002B832EC08A81813039F4E4E3F0E08FEF51
:10051000808331E03B8324C08A81882331F4E4E383
:10052000F0E0108281E08B831BC09FEF9B8318C09B
:100530008A81813039F4E1E3F0E08FEF808321E0BC
:100540002B830EC08A81882331F4E1E3F0E010822E
:1005500031E03B8305C08FEF8B8302C09FEF9B830D
:100560008B810F900F900F900F900F90CF91DF9194
:100570000895DF93CF93CDB7DEB728970FB6F894E1
:10058000DEBF0FBECDBF89836A834B838A818830EB
:1005900018F02FEF288704C18B81813009F07BC0D0
:1005A0008981282F30E03F832E838E819F81823086
:1005B000910569F12E813F812330310534F48E811C
:1005C0009F818130910569F063C02E813F81233086
:1005D000310591F18E819F818430910509F442C0EB
:1005E00057C0ABE3B0E0EBE3F0E08081482F8A81B5
:1005F000282F30E081E090E0022E02C0880F991F82
:100600000A94E2F7842B8C9391E09887C9C0A8E301
:10061000B0E0E8E3F0E08081482F8A81282F30E0C5
:1006200081E090E002C0880F991F2A95E2F7842BA1
:100630008C9321E02887B4C0A5E3B0E0E5E3F0E0C7
:100640008081482F8A81282F30E081E090E0022EBF
:1006500002C0880F991F0A94E2F7842B8C9331E033
:1006600038879EC0A2E3B0E0E2E3F0E08081482F4B
:100670008A81282F30E081E090E0022E02C0880FAE
:10068000991F0A94E2F7842B8C9381E0888788C0B5
:100690009EEF988785C08B81882309F07FC0898170
:1006A000282F30E03D832C838C819D818230910501
:1006B00071F12C813D812330310534F48C819D8191
:1006C0008130910569F067C02C813D81233031056F
:1006D000A1F18C819D818430910509F445C05BC0F6
:1006E000ABE3B0E0EBE3F0E08081482F8A81282F74
:1006F00030E081E090E0022E02C0880F991F0A943A
:10070000E2F7809584238C9391E0988749C0A8E311
:10071000B0E0E8E3F0E08081482F8A81282F30E0C4
:1007200081E090E002C0880F991F2A95E2F780953A
:1007300084238C9321E0288733C0A5E3B0E0E5E370
:10074000F0E08081482F8A81282F30E081E090E01E
:10075000022E02C0880F991F0A94E2F78095842325
:100760008C9331E038871CC0A2E3B0E0E2E3F0E014
:100770008081482F8A81282F30E081E090E0022E8E
:1007800002C0880F991F0A94E2F7809584238C9306
:1007900081E0888705C09EEF988702C02DEF2887EB
:1007A000888528960FB6F894DEBF0FBECDBFCF91D7
:1007B000DF910895DF93CF9300D000D00F92CDB793
:1007C000DEB789836A838981282F30E03D832C83BB
:1007D0008C819D8182309105E9F02C813D8123300F
:1007E000310534F48C819D818130910561F027C001
:1007F0002C813D8123303105A1F08C819D81843095
:100800009105B1F01CC0EBE3F0E08A81808391E0B8
:100810009B8317C0E8E3F0E08A81808321E02B838B
:1008200010C0E5E3F0E08A81808331E03B8309C0BA
:10083000E2E3F0E08A81808381E08B8302C09FEF56
:100840009B838B810F900F900F900F900F90CF9103
:10085000DF910895DF93CF93CDB7DEB727970FB61B
:10086000F894DEBF0FBECDBF89836A835C834B8360
:100870008A81883018F02FEF2F837BC08981482F21
:1008800050E05E834D838D819E818230910569F1B8
:100890002D813E812330310534F44D815E8141301C
:1008A000510569F064C08D819E818330910599F175
:1008B0002D813E812430310509F443C058C0E9E35D
:1008C000F0E08081282F30E08A81882F90E0A90114
:1008D00002C0559547958A95E2F7CA018170EB8170
:1008E000FC81808351E05F8344C0E6E3F0E08081D7
:1008F000282F30E08A81882F90E0A90102C0559509
:1009000047958A95E2F7CA018170EB81FC8180836B
:1009100051E05F832EC0E3E3F0E08081282F30E0D8
:100920008A81882F90E0A90102C0559547958A9544
:10093000E2F7CA018170EB81FC81808351E05F8323
:1009400018C0E0E3F0E08081282F30E08A81882F12
:1009500090E0A90102C0559547958A95E2F7CA0132
:100960008170EB81FC81808351E05F8302C08EEF58
:100970008F838F8127960FB6F894DEBF0FBECDBF51
:10098000CF91DF910895DF93CF9300D000D00F92E5
:10099000CDB7DEB789836A838A81883018F02FEF5C
:1009A0002D837AC08981282F30E03C832B838B8173
:1009B0009C818230910569F12B813C812330310586
:1009C00034F48B819C818130910569F063C02B8167
:1009D0003C812330310591F18B819C8184309105DC
:1009E00009F442C057C0ABE3B0E0EBE3F0E0808134
:1009F000482F8A81282F30E081E090E0022E02C04B
:100A0000880F991F0A94E2F784278C9391E09D83C5
:100A100043C0A8E3B0E0E8E3F0E08081482F8A819A
:100A2000282F30E081E090E002C0880F991F2A95BE
:100A3000E2F784278C9321E02D832EC0A5E3B0E05C
:100A4000E5E3F0E08081482F8A81282F30E081E0C3
:100A500090E0022E02C0880F991F0A94E2F78427C3
:100A60008C9331E03D8318C0A2E3B0E0E2E3F0E014
:100A70008081482F8A81282F30E081E090E0022E8B
:100A800002C0880F991F0A94E2F784278C9381E0B3
:100A90008D8302C09EEF9D838D810F900F900F90EC
:100AA0000F900F90CF91DF910895DF93CF93CDB743
:100AB000DEB7AFE5B0E0EFE5F0E0808180688C93D1
:100AC000CF91DF910895DF93CF9300D00F92CDB7F0
:100AD000DEB789836A838A81883018F08FEF8B8331
:100AE00007C089816A8141E00E943E0081E08B83DA
:100AF0008B810F900F900F90CF91DF910895DF932E
:100B0000CF9300D00F92CDB7DEB789836A838A81F5
:100B1000883018F08FEF8B8307C089816A8141E0AC
:100B20000E94B90281E08B838B810F900F900F9010
:100B3000CF91DF910895DF93CF9300D00F92CDB77F
:100B4000DEB789836A838A81883018F08FEF8B83C0
:100B500007C089816A8140E00E94B90281E08B83ED
:100B60008B810F900F900F90CF91DF910895DF93BD
:100B7000CF9300D00F92CDB7DEB789836A838A8185
:100B8000883018F08FEF8B8306C089816A810E94BC
:100B9000C30481E08B838B810F900F900F90CF91D6
:100BA000DF910895DF93CF93CDB7DEB7A3E5B0E033
:100BB000E3E5F0E08081877F8C93A3E5B0E0E3E597
:100BC000F0E080818F7B8C93A3E5B0E0E3E5F0E07B
:100BD000808181608C93A3E5B0E0E3E5F0E0808163
:100BE0008D7F8C93A3E5B0E0E3E5F0E08081846045
:100BF0008C93A9E5B0E0E9E5F0E0808181608C9319
:100C0000A9E5B0E0E9E5F0E080818D7F8C93CF919C
:100C1000DF910895DF93CF9300D0CDB7DEB79A83ED
:100C20008983E2E5F0E08081E981FA818083E2E571
:100C3000F0E080810F900F90CF91DF910895DF93C6
:100C4000CF93CDB7DEB7A3E5B0E0E3E5F0E0808178
:100C50008E7F8C93A3E5B0E0E3E5F0E080818D7FAB
:100C60008C93A3E5B0E0E3E5F0E080818B7F8C938B
:100C7000CF91DF910895DF93CF930F92CDB7DEB779
:100C80008983ECE5F0E0898180830F90CF91DF913B
:100C90000895DF93CF93CDB7DEB7A8E5B0E0E8E5E0
:100CA000F0E0808181608C93CF91DF910895DF9394
:100CB000CF9300D0CDB7DEB79A838983E8E5F0E023
:100CC00080818170E981FA8180830F900F90CF91AC
:100CD000DF910895DF93CF93CDB7DEB7A8E5B0E0FD
:100CE000E8E5F0E0808182608C93CF91DF910895F8
:100CF000DF93CF9300D0CDB7DEB79A838983E8E541
:100D0000F0E0808186958170E981FA8180830F907F
:100D10000F90CF91DF910895DF93CF930F92CDB7CE
:100D2000DEB78983E2E5F0E0898180830F90CF917F
:100D3000DF910895DF93CF9300D000D000D0CDB7DE
:100D4000DEB79E838D838D819E81892F99278B832A
:100D50008D8181958A831C828A810E948C061982EA
:100D600011C0CE0104960E94570604C0CE0104961D
:100D70000E9457068C818823C9F30E944906898105
:100D80008F5F898399818B81891758F726960FB6D3
:100D9000F894DEBF0FBECDBFCF91DF910895DF93F2
:100DA000CF9300D0CDB7DEB79A83898389819A81AA
:100DB00090936800809367000F900F90CF91DF9120
:100DC00008951F920F920FB60F9211242F933F9305
:100DD0004F935F936F937F938F939F93AF93BF9343
:100DE000EF93FF93DF93CF93CDB7DEB7E09167002A
:100DF000F09168000995CF91DF91FF91EF91BF913C
:100E0000AF919F918F917F916F915F914F913F91A2
:100E10002F910F900FBE0F901F901895DF93CF93D7
:100E200000D0CDB7DEB79A83898389819A81909368
:100E30006400809363000F900F90CF91DF9108952D
:100E40001F920F920FB60F9211242F933F934F933F
:100E50005F936F937F938F939F93AF93BF93EF9322
:100E6000FF93DF93CF93CDB7DEB7E0916300F091AE
:100E700064000995CF91DF91FF91EF91BF91AF9100
:100E80009F918F917F916F915F914F913F912F91A2
:100E90000F900FBE0F901F901895DF93CF93CDB793
:100EA000DEB7A5E4B0E0E5E4F0E08081877F8C93D5
:100EB000A5E4B0E0E5E4F0E080818F7B8C93A5E4CD
:100EC000B0E0E5E4F0E0808181608C93A5E4B0E0DF
:100ED000E5E4F0E0808182608C93A5E4B0E0E5E495
:100EE000F0E0808184608C93A9E5B0E0E9E5F0E072
:100EF00080818F7B8C93A9E5B0E0E9E5F0E080810B
:100F00008F778C93CF91DF910895DF93CF9300D0AB
:100F1000CDB7DEB79A838983E4E4F0E08081E9818C
:100F2000FA818083E4E4F0E080810F900F90CF910C
:100F3000DF910895DF93CF93CDB7DEB7A5E4B0E09E
:100F4000E5E4F0E080818E7F8C93A5E4B0E0E5E4F9
:100F5000F0E080818D7F8C93A5E4B0E0E5E4F0E0E3
:100F600080818B7F8C93CF91DF910895DF93CF9316
:100F70000F92CDB7DEB78983E3E4F0E08981808307
:100F80000F90CF91DF910895DF93CF93CDB7DEB768
:100F9000A8E5B0E0E8E5F0E0808180648C93CF9133
:100FA000DF910895DF93CF9300D0CDB7DEB79A835A
:100FB0008983E8E5F0E08081829586958695837047
:100FC0008170E981FA8180830F900F90CF91DF913A
:100FD0000895DF93CF93CDB7DEB7A8E5B0E0E8E59D
:100FE000F0E0808180688C93CF91DF910895DF934A
:100FF000CF9300D0CDB7DEB79A838983E8E5F0E0E0
:101000008081881F8827881FE981FA8180830F905B
:101010000F90CF91DF910895DF93CF930F92CDB7CB
:10102000DEB78983E4E4F0E0898180830F90CF917B
:10103000DF910895DF93CF9300D000D000D0CDB7DB
:10104000DEB79E838D838D819E81892F99278B8327
:101050008D8181958A831C828A810E940C08198265
:1010600011C0CE0104960E94D20704C0CE0104969E
:101070000E94D2078C818823C9F30E94C40789810A
:101080008F5F898399818B81891758F726960FB6D0
:10109000F894DEBF0FBECDBFCF91DF910895DF93EF
:1010A000CF9300D0CDB7DEB79A83898389819A81A7
:1010B00090936200809361000F900F90CF91DF9129
:1010C00008951F920F920FB60F9211242F933F9302
:1010D0004F935F936F937F938F939F93AF93BF9340
:1010E000EF93FF93DF93CF93CDB7DEB7E09161002D
:1010F000F09162000995CF91DF91FF91EF91BF913F
:10110000AF919F918F917F916F915F914F913F919F
:101110002F910F900FBE0F901F901895DF93CF93D4
:1011200000D0CDB7DEB79A83898389819A81909365
:101130006600809365000F900F90CF91DF91089526
:101140001F920F920FB60F9211242F933F934F933C
:101150005F936F937F938F939F93AF93BF93EF931F
:10116000FF93DF93CF93CDB7DEB7E0916500F091A9
:1011700066000995CF91DF91FF91EF91BF91AF91FB
:101180009F918F917F916F915F914F913F912F919F
:101190000F900FBE0F901F901895DF93CF93CDB790
:1011A000DEB7809160008A3041F482E067E00E94FF
:1011B0009B058EEB0E948C060DC0809160008A31E9
:1011C00049F482E067E00E947F0588ED0E948C066A
:1011D00010926000809160008F5F80936000CF91DB
:1011E000DF910895DF93CF93CDB7DEB70E94550509
:1011F00082E065E00E94630582E067E00E9463058B
:1012000082E065E00E947F050E94D20588ED0E9481
:101210008C068DEC98E00E94CF060E944D0782E07C
:1012200065E00E947F0587E299E00E941A0882E04B
:1012300065E00E949B0582E49FE00E941A08EFCFC0
:04124000F894FFCF50
:00000001FF
